:100000000C9435000C945D000C945D000C945D0024
:100010000C945D000C945D000C945D000C945D00EC
:100020000C945D000C945D000C945D000C945D00DC
:100030000C945D000C945D000C945D000C945D00CC
:100040000C94BE010C945D000C942E020C940802DA
:100050000C945D000C945D000C945D000C945D00AC
:100060000C945D000C945D00AB0311241FBECFEF18
:10007000D8E0DEBFCDBF11E0A0E0B1E0E2EAFBE0F6
:1000800002C005900D92A232B107D9F721E0A2E299
:10009000B1E001C01D92A83CB207E1F710E0C5E352
:1000A000D0E004C02197FE010E94C405C433D107EB
:1000B000C9F70E9460020C94CF050C940000CF9207
:1000C000DF92EF92FF920F931F93CF93DF936C0118
:1000D0007A018B01C0E0D0E0CE15DF0589F0D801B0
:1000E0006D918D01D601ED91FC910190F081E02D93
:1000F000C6010995892B11F47E0102C02196ECCF2F
:10010000C701DF91CF911F910F91FF90EF90DF908A
:10011000CF900895089580E090E00895FC01538DFC
:10012000448D252F30E0842F90E0821B930B5417D1
:1001300010F0CF96089501970895FC01918D828D5E
:10014000981761F0828DDF01A80FB11D5D968C912B
:10015000928D9F5F9F73928F90E008958FEF9FEF36
:100160000895FC01918D828D981731F0828DE80FF2
:10017000F11D858D90E008958FEF9FEF0895FC01AC
:10018000918D228D892F90E0805C9F4F821B910979
:100190008F73992708958BE291E00E94BF0021E0C0
:1001A000892B09F420E0822F0895FC01848DDF0162
:1001B000A80FB11DA35ABF4F2C91848D90E00196DA
:1001C0008F739927848FA689B7892C93A089B189C9
:1001D0008C9180648C93938D848D981306C00288D3
:1001E000F389E02D80818F7D80830895EF92FF92C7
:1001F0000F931F93CF93DF93EC0181E0888F9B8D4A
:100200008C8D981305C0E889F989808185FD24C00B
:10021000F62E0B8D10E00F5F1F4F0F731127E02E8E
:100220008C8DE8120CC00FB607FCFACFE889F9896B
:10023000808185FFF5CFCE010E94D500F1CF8B8D57
:10024000FE01E80FF11DE35AFF4FF0820B8FEA89A0
:10025000FB898081806207C0EE89FF896083E8891D
:10026000F98980818064808381E090E0DF91CF9183
:100270001F910F91FF90EF900895CF93DF93EC01C2
:10028000888D8823C9F0EA89FB89808185FD05C0B6
:10029000A889B9898C9186FD0FC00FB607FCF5CFF0
:1002A000808185FFF2CFA889B9898C9185FFEDCF38
:1002B000CE010E94D500E7CFDF91CF91089580E075
:1002C00090E0892B29F00E94CB0081110C94000052
:1002D0000895009769F0FC0101900020E9F731973B
:1002E000AF01481B590BBC018BE291E00C945F00FD
:1002F00080E090E008958F929F92AF92BF920F930B
:100300001F93CF93DF93CDB7DEB7A1970FB6F894C5
:10031000DEBF0FBECDBF19A2423008F44AE08E0105
:100320000F5D1F4F842E912CA12CB12CA50194019F
:100330000E94A205E62FB901CA0101501109EA3055
:1003400014F4E05D01C0E95CD801EC93232B242B6D
:10035000252B61F7C8010E946901A1960FB6F89498
:10036000DEBF0FBECDBFDF91CF911F910F91BF9028
:10037000AF909F908F9008950E94CA051F920F9290
:100380000FB60F9211242F933F938F939F93AF93A8
:10039000BF938091270190912801A0912901B091EC
:1003A0002A013091260123E0230F2D3720F40196F6
:1003B000A11DB11D05C026E8230F0296A11DB11D88
:1003C000209326018093270190932801A09329016F
:1003D000B0932A018091220190912301A0912401E0
:1003E000B09125010196A11DB11D8093220190932A
:1003F0002301A0932401B0932501BF91AF919F9158
:100400008F913F912F910F900FBE0F901F901895D5
:100410001F920F920FB60F9211242F933F934F9379
:100420005F936F937F938F939F93AF93BF93EF935C
:10043000FF938BE291E00E94D500FF91EF91BF9175
:10044000AF919F918F917F916F915F914F913F916C
:100450002F910F900FBE0F901F9018951F920F9223
:100460000FB60F9211242F938F939F93EF93FF93C7
:10047000E0913B01F0913C018081E0914101F091DC
:10048000420182FD12C09081809144018F5F8F7381
:1004900020914501821751F0E0914401F0E0E55DC3
:1004A000FE4F958F8093440101C08081FF91EF91B1
:1004B0009F918F912F910F900FBE0F901F901895C5
:1004C000789484B5826084BD84B5816084BD85B52F
:1004D000826085BD85B5816085BD80916E0081603B
:1004E00080936E00109281008091810082608093E1
:1004F00081008091810081608093810080918000E3
:100500008160809380008091B10084608093B1000D
:100510008091B00081608093B00080917A00846007
:1005200080937A0080917A00826080937A00809133
:100530007A00816080937A0080917A00806880934D
:100540007A001092C100E0913B01F0913C0182E001
:100550008083E0913701F09138011082E0913901F8
:10056000F0913A018FEC808310924301E0913F01BA
:10057000F091400186E08083E0913D01F0913E01E1
:10058000808180618083E0913D01F0913E01808116
:1005900088608083E0913D01F0913E018081806818
:1005A0008083E0913D01F0913E0180818F7D8083C9
:1005B000C0E4C0937C0080917A00806480937A00CC
:1005C00080917A0086FDFCCF60917800809179005F
:1005D00070E0782B072E000C880B990B0E947B048F
:1005E0002AE038E240EA5BE30E9430056B017C01BF
:1005F0004B015C019B01AC010E949D05882319F011
:1006000082E191E01AC026013701E89477F82FEFD4
:100610003FEF4FE75FE7C301B2010E949D058111E3
:100620000FC02FEF3FEF4FE75FE7C301B2010E941A
:10063000450418162CF486E191E00E94690184C0FB
:100640002FEF3FEF4FE75FE4C701B6010E942B0594
:1006500018161CF48AE191E0F0CF2FEF3FEF4FE73F
:100660005FECC701B6010E94450487FDF3CF20E08F
:1006700030E0A901C701B6010E94450487FF11C0FF
:10068000E0912B01F0912C010190F081E02D6DE2C1
:100690008BE291E0099546015701B7FAB094B7F89B
:1006A000B0942AE037ED43EA5BE3C501B4010E9450
:1006B000D9034B015C010E944A046B017C010E943A
:1006C00079049B01AC01C501B4010E94D8034B0120
:1006D0005C014AE0C701B6010E947B01E0912B0159
:1006E000F0912C010190F081E02D6EE28BE291E01F
:1006F000099520E030E040E251E4C501B4010E94D8
:1007000030054B015C010E944A046B01E12CF12C85
:100710004AE0C701B6010E947B01C701B6010E94F1
:1007200079049B01AC01C501B4010E94D80320E00B
:1007300030E040E251E40E9430050E944A0480E02B
:1007400090E04AE00E947B018EE191E00E94690105
:100750000E945F012ECFEBE2F1E01382128288EE5D
:1007600093E0A0E0B0E084839583A683B78384E020
:1007700091E09183808385EC90E09587848784EC79
:1007800090E09787868780EC90E0918B808B81EC5E
:1007900090E0938B828B82EC90E0958B848B86EC3F
:1007A00090E0978B868B118E128E138E148E089587
:1007B0005058BB27AA270E94F0030C94F1040E9412
:1007C000E30438F00E94EA0420F039F49F3F19F462
:1007D00026F40C94E0040EF4E095E7FB0C94DA04A4
:1007E000E92F0E94020558F3BA17620773078407BE
:1007F000950720F079F4A6F50C9424050EF4E09505
:100800000B2EBA2FA02D0B01B90190010C01CA01CA
:10081000A0011124FF27591B99F0593F50F4503E75
:1008200068F11A16F040A22F232F342F4427585F67
:10083000F3CF469537952795A795F0405395C9F77F
:100840007EF41F16BA0B620B730B840BBAF0915037
:10085000A1F0FF0FBB1F661F771F881FC2F70EC0D6
:10086000BA0F621F731F841F48F4879577956795A9
:10087000B795F7959E3F08F0B0CF9395880F08F095
:100880009927EE0F9795879508950E94B60408F46E
:1008900081E008950E940A0588F09F5798F0B92FCB
:1008A0009927B751B0F0E1F0660F771F881F991FA5
:1008B0001AF0BA95C9F714C0B13091F00E9424051E
:1008C000B1E008950C942405672F782F8827B85F2E
:1008D00039F0B93FCCF3869577956795B395D9F7FD
:1008E0003EF490958095709561957F4F8F4F9F4F07
:1008F0000895E89409C097FB3EF490958095709513
:1009000061957F4F8F4F9F4F9923A9F0F92F96E95B
:10091000BB279395F695879577956795B795F111D0
:10092000F8CFFAF4BB0F11F460FF1BC06F5F7F4F6D
:100930008F4F9F4F16C0882311F096E911C077237F
:1009400021F09EE8872F762F05C0662371F096E888
:10095000862F70E060E02AF09A95660F771F881F57
:10096000DAF7880F9695879597F90895990F0008FB
:10097000550FAA0BE0E8FEEF16161706E807F90771
:10098000C0F012161306E407F50798F0621B730B0C
:10099000840B950B39F40A2661F0232B242B252B8D
:1009A00021F408950A2609F4A140A6958FEF811D30
:1009B000811D089597F99F6780E870E060E00895D1
:1009C0009FEF80EC089500240A9416161706180667
:1009D0000906089500240A94121613061406050643
:1009E0000895092E0394000C11F4882352F0BB0FD4
:1009F00040F4BF2B11F460FF04C06F5F7F4F8F4F37
:100A00009F4F089557FD9058440F551F59F05F3F71
:100A100071F04795880F97FB991F61F09F3F79F020
:100A200087950895121613061406551FF2CF4695A2
:100A3000F1DF08C0161617061806991FF1CF869524
:100A40007105610508940895E894BB276627772708
:100A5000CB0197F908950E94B60408F48FEF08952A
:100A60000E9443050C94F1040E94E30438F00E94B4
:100A7000EA0420F0952311F00C94DA040C94E004BD
:100A800011240C9425050E94020570F3959FC1F373
:100A9000950F50E0551F629FF001729FBB27F00D2C
:100AA000B11D639FAA27F00DB11DAA1F649F662781
:100AB000B00DA11D661F829F2227B00DA11D621FD0
:100AC000739FB00DA11D621F839FA00D611D221F8A
:100AD000749F3327A00D611D231F849F600D211D6E
:100AE000822F762F6A2F11249F5750409AF0F1F0F1
:100AF00088234AF0EE0FFF1FBB1F661F771F881F5A
:100B000091505040A9F79E3F510580F00C94DA04B3
:100B10000C9425055F3FE4F3983ED4F386957795D2
:100B20006795B795F795E7959F5FC1F7FE2B880FFF
:100B3000911D9695879597F908950E94B604880BA4
:100B4000990B0895A1E21A2EAA1BBB1BFD010DC033
:100B5000AA1FBB1FEE1FFF1FA217B307E407F5076D
:100B600020F0A21BB30BE40BF50B661F771F881F49
:100B7000991F1A9469F760957095809590959B01DF
:100B8000AC01BD01CF010895EE0FFF1F0590F49158
:100B9000E02D099481E090E0F8940C94CF05F8944E
:020BA000FFCF85
:100BA20000000000F6005F008E003D01BF009D00C6
:100BB200B1006E616E00696E66006F7666000D0AA6
:020BC200000031
:00000001FF
