:100000000C9462000C948A000C948A000C948A0070
:100010000C948A000C948A000C948A000C94F601CB
:100020000C948A000C948A000C948A000C948A0028
:100030000C948A000C948A000C948A000C948A0018
:100040000C94E5030C948A000C94C4010C949E015A
:100050000C948A000C948A000C948A000C948A00F8
:100060000C948A000C948A000000000024002700F1
:100070002A000000000023002600290000000000E4
:10008000250028002B0004040404040404040202D4
:100090000202020203030303030301020408102007
:1000A0004080010204081020010204081020000012
:1000B0000008000201000003040700000000000027
:1000C0000000E20B11241FBECFEFD8E0DEBFCDBF92
:1000D00011E0A0E0B1E0E6E7FDE102C005900D927D
:1000E000A631B107D9F722E0A6E1B1E001C01D9227
:1000F000AF39B207E1F710E0C2E6D0E004C02197C3
:10010000FE010E949F0EC136D107C9F70E942F043D
:100110000C94B90E0C940000CF92DF92EF92FF92F4
:100120000F931F93CF93DF936C017A018B01C0E093
:10013000D0E0CE15DF0581F0D8016D918D01D6019B
:10014000ED91FC910190F081E02DC6010995892B7C
:1001500011F02196EECF7E01C701DF91CF911F9163
:100160000F91FF90EF90DF90CF900895089580E079
:1001700090E00895FC01538D448D252F30E0842FAD
:1001800090E0821B930B541710F0CF9608950197BF
:100190000895FC01918D828D981761F0828DDF01A9
:1001A000A80FB11D5D968C91928D9F5F9F73928F6A
:1001B00090E008958FEF9FEF0895FC01918D828D5F
:1001C000981731F0828DE80FF11D858D90E008952C
:1001D0008FEF9FEF0895FC01918D228D892F90E084
:1001E000805C9F4F821B91098F739927089586E247
:1001F00091E00E94EB0021E0892B09F420E0822F9E
:100200000895FC01848DDF01A80FB11DA35ABF4FD3
:100210002C91848D90E001968F739927848FA68905
:10022000B7892C93A089B1898C91837080648C9359
:10023000938D848D981306C00288F389E02D808108
:100240008F7D80830895EF92FF920F931F93CF933A
:10025000DF93EC0181E0888F9B8D8C8D981305C016
:10026000E889F989808185FD26C0F62E0B8D10E086
:100270000F5F1F4F0F731127E02E8C8DE8120CC0FB
:100280000FB607FCFACFE889F989808185FFF5CFA1
:10029000CE010E940101F1CF8B8DFE01E80FF11D0F
:1002A000E35AFF4FF0829FB7F8940B8FEA89FB89DE
:1002B000808180620AC09FB7F894EE89FF896083CD
:1002C000E889F98980818370806480839FBF81E0A1
:1002D00090E0DF91CF911F910F91FF90EF900895E3
:1002E000CF93DF93EC01888D8823C9F0EA89FB89DD
:1002F000808185FD05C0A889B9898C9186FD0FC0D4
:100300000FB607FCF5CF808185FFF2CFA889B989A8
:100310008C9185FFEDCFCE010E940101E7CFDF91E7
:10032000CF91089580E090E0892B29F00E94F7009A
:1003300081110C94000008950E94B40E1F920F9238
:100340000FB60F9211242F933F934F935F936F93A8
:100350007F938F939F93AF93BF93EF93FF9386E227
:1003600091E00E940101FF91EF91BF91AF919F91A8
:100370008F917F916F915F914F913F912F910F904E
:100380000FBE0F901F9018951F920F920FB60F92ED
:1003900011242F938F939F93EF93FF93E091360156
:1003A000F09137018081E0913C01F0913D0182FDA7
:1003B00012C0908180913F018F5F8F732091400127
:1003C000821751F0E0913F01F0E0EA5DFE4F958F1A
:1003D00080933F0101C08081FF91EF919F918F91A8
:1003E0002F910F900FBE0F901F9018951F920F9294
:1003F0000FB60F9211242F933F934F935F936F93F8
:100400007F938F939F93AF93BF93CF93DF93EF939C
:10041000FF932091C40130E0F901E255FF4F849130
:10042000F901E656FF4FD491F901EA57FF4FC49105
:10043000CC2379F081110E948D03EC2FF0E0EE0FB8
:10044000FF1FEE58FF4FA591B491EC91ED2381E091
:1004500009F480E02091C8013091C9012F5F3F4F1E
:100460003093C9012093C8019091C701953618F0C7
:1004700096E09093C3019091C3019430C9F128F4A0
:10048000923069F09330D1F05EC0953009F451C0DC
:10049000963009F058C091E09093940251C08111B8
:1004A00052C02091C8013091C9012436310508F4A9
:1004B00042C0109294021092C7011CC0813009F012
:1004C00042C0E091C70191E09E0F9093C701F0E018
:1004D0002091C8013091C901EE0FFF1FED53FE4F6F
:1004E000308727831092C9011092C80194E029C077
:1004F000811117C0E091C70191E09E0F9093C70151
:10050000F0E02091C8013091C901EE0FFF1FED53BB
:10051000FE4F308727831092C9011092C80193E0E3
:1005200010C02091C8013091C9012536310558F01D
:1005300007C0811108C01092C9011092C80103C000
:1005400095E09093C3019091C6019923B9F0811170
:100550000AC08091C501882321F08091C50161E026
:1005600009C02D9A0BC08091C501882331F080917C
:10057000C50160E00E94B60301C02D98FF91EF9184
:10058000DF91CF91BF91AF919F918F917F916F91AB
:100590005F914F913F912F910F900FBE0F901F9041
:1005A0001895CF92DF92EF92FF92CF93DF93EC01F9
:1005B000072E000C880B990B0E94300D6B017C01FB
:1005C00020E030E040E45FE30E94E00D20E030E016
:1005D00048E452E40E94860C0E94F80CC617D70724
:1005E000D4F020E030E040EA5FE3C701B6010E94AA
:1005F000E00D20E030E048E452E40E94860C20E068
:1006000030E040E85FE30E94150C0E94F80C21E006
:100610006C177D070CF420E0822F90E0DF91CF91E2
:10062000FF90EF90DF90CF9008958F929F92AF92BE
:10063000BF92CF92DF92EF92FF920F931F93CF93CF
:10064000DF93FC0120813181E0912201F0912301AF
:100650002E173F070CF04FC0F901EE0FFF1FA091BE
:100660002001B0912101EA0FFB1FA080B180217011
:1006700033276901F1E0CF26232B19F42CE93FEF52
:1006800002C024E630E07A018B01EC014901840EBE
:10069000951EB401C5010E94D102892B99F48E0CDC
:1006A0009F1CB401C5010E94D102892B71F4B701CE
:1006B000680D791DC5010E94D102892BF9F023E054
:1006C00030E005C021E030E002C022E030E0F80177
:1006D000808191810196821793071CF49183808316
:1006E00008C0F8011182108288819981019699834E
:1006F0008883C60105C081E090E002C08FEF9FEFC4
:10070000DF91CF911F910F91FF90EF90DF90CF90ED
:10071000BF90AF909F908F900895833081F028F420
:10072000813099F08230A1F008958730A9F08830A7
:10073000B9F08430D1F4809180008F7D03C0809126
:1007400080008F7780938000089584B58F7702C0F2
:1007500084B58F7D84BD08958091B0008F7703C0EC
:100760008091B0008F7D8093B00008951F93CF9348
:10077000DF93282F30E0F901E255FF4F8491F90112
:10078000E656FF4FD491F901EA57FF4FC491CC23AD
:10079000C1F0162F81110E948D03EC2FF0E0EE0FB7
:1007A000FF1FE458FF4FA591B4919FB7F894111122
:1007B00004C08C91D095D82302C0EC91DE2BDC9341
:1007C0009FBFDF91CF911F9108951F920F920FB697
:1007D0000F9211242F933F938F939F93AF93BF93C7
:1007E00080919B0290919C02A0919D02B0919E02EB
:1007F00030919A0223E0230F2D3720F40196A11D9A
:10080000B11D05C026E8230F0296A11DB11D20933E
:100810009A0280939B0290939C02A0939D02B093B6
:100820009E028091960290919702A0919802B091B9
:1008300099020196A11DB11D809396029093970293
:10084000A0939802B0939902BF91AF919F918F911D
:100850003F912F910F900FBE0F901F901895CF933F
:10086000DF93CDB7DEB7AB970FB6F894DEBF0FBE00
:10087000CDBF789484B5826084BD84B5816084BD29
:1008800085B5826085BD85B5816085BD80916E002E
:10089000816080936E00109281008091810082605F
:1008A000809381008091810081608093810080919C
:1008B00080008160809380008091B100846080938B
:1008C000B1008091B00081608093B00080917A0087
:1008D000846080937A0080917A00826080937A00AD
:1008E00080917A00816080937A0080917A0080689C
:1008F00080937A001092C100E0913601F0913701A7
:1009000082E08083E0913201F09133011082E09126
:100910003401F09135019FEC908310923E01E091FB
:100920003A01F0913B0196E09083E0913801F0911B
:100930003901908190619083E0913801F091390103
:10094000908198609083E0913801F0913901908115
:1009500090689083E0913801F091390190819F7DFA
:100960009083F8948093B0008093B10094E69093C4
:10097000B3001092B2008093700078948093C3010A
:100980001092C7018091C40190E0FC01E656FF4F30
:100990002491FC01EA57FF4F84918823C9F090E02D
:1009A000880F991FFC01E859FF4F45915491FC01B4
:1009B000E458FF4FA591B4919FB7F894FA01808154
:1009C0002095822380838C91E22FE823EC939FBFB4
:1009D00081E08093C601E7EAF0E02491E3E9F0E0EA
:1009E0008491882399F090E0880F991FFC01E859C1
:1009F000FF4FA591B491FC01E458FF4F859194916C
:100A00008FB7F894EC91E22BEC938FBF10E2212E7C
:100A1000312C44244A94542C32012AEC31E0309396
:100A20002101209320018091C70190E09093230140
:100A3000809322018091940290E09093250180930D
:100A400024018091C301853009F0FCC08091CC0164
:100A50009091CD01885891098D35910588F4809148
:100A6000C701843041F48091CE019091CF018097ED
:100A7000479708F4EAC08091C701843408F060C049
:100A80008091C7018A3108F420C18091CA019091F8
:100A9000CB01843F914068F410921F0110921E0117
:100AA00040921A0150921B0160921C0170921D012C
:100AB00044C08091CC019091CD0185974B9708F06F
:100AC00004C1E0EDF1E082E090E0C12CD12C760190
:100AD000AC014F5F5F4F2091C70130E042175307D1
:100AE0005CF4DF0112972D913C912750310927309A
:100AF000310508F4CEC0CA0101979595879590936A
:100B00001F0180931E010C972CF410921F0110926C
:100B10001E01DBC0C0921A01D0921B01E0921C01A1
:100B2000F0921D0184E090E046C0C0921A01D0927C
:100B30001B01E0921C01F0921D018BE090E03BC094
:100B40008091CE019091CF01825491098E9708F047
:100B500097CF80E090E040E050E0BA01FC01E05324
:100B6000FE4F20813181295031092930310508F0AB
:100B700087CFFC01EE52FE4F208131812751310990
:100B80002231310508F078C0440F551F661F771FCA
:100B9000416004968038910509F730921F01209238
:100BA0001E0140931A0150931B0160931C01709326
:100BB0001D0183E090E0909317018093160100914E
:100BC0001A0110911B0120911C0130911D0119A2E5
:100BD000BE016F5D7F4FD901C8018F709927AA2789
:100BE000BB2794E036952795179507959A95D1F7E9
:100BF000615071098A3014F4805D01C0895CDB01A9
:100C00008C93011511052105310529F76115710531
:100C100061F0FB0101900020E9F73197AF01461B1D
:100C2000570B86E291E00E948C0042E050E062E1C6
:100C300071E086E291E00E948C0082E08093C30123
:100C40001092C7010E949201E8CE8091D00190914C
:100C5000D1010997099708F00ECF10921F01109249
:100C60001E0140921A0150921B0160921C01709269
:100C70001D01E3E0F0E09AC5208131812650310961
:100C80002730310508F0FCCE440F551F661F771F33
:100C900080CF20813181235131092F30310548F433
:100CA000CC0CDD1CEE1CFF1C6894C0F80296349638
:100CB0000FCF208131812A5031092930310528F4A4
:100CC000CC0CDD1CEE1CFF1CF1CF8091C7018A31DA
:100CD00008F45DC08091CA019091CB0180329340AD
:100CE00008F4DACE8091CC019091CD01C697869719
:100CF00008F04DC08091CE019091CF01C6978697A4
:100D000008F045C0E2EDF1E083E090E0C12CD12C89
:100D10007601AC014F5F5F4F2091C70130E0421771
:100D2000530754F4DF0112972D913C912C50310957
:100D30002B30310580F0CA010197959587959093E6
:100D40001F0180931E010C970CF0EFCE10921F0133
:100D500010921E011CC020813181255231092B3196
:100D6000310570F0208131812C5031092A30310554
:100D700070F4CC0CDD1CEE1CFF1C02963496C9CF1F
:100D8000CC0CDD1CEE1CFF1C6894C0F8F6CF8091E3
:100D9000C701823208F458C08091CC019091CD01F6
:100DA0000697079708F050C0E0EDF1E082E090E090
:100DB000C12CD12C76019C012F5F3F4F4091C70180
:100DC00050E024173507CCF4DF0112974D915C9168
:100DD00011974E5151094731510540F5CC0CDD1C9E
:100DE000EE1CFF1C6894C0F840815181349643503A
:100DF00051094530510530F1C90101979595879505
:100E000090931F0180931E0140972CF410921F01B4
:100E100010921E0119C0C0921A01D0921B01E092DB
:100E20001C01F0921D018CE090E0C5CE4D915C91CB
:100E30004C5051094B30510538F4CC0CDD1CEE1CE4
:100E4000FF1CD2CF0296B7CF1BA21AA2E1E0F0E0BE
:100E5000FA83E9838091C7018D3078F41BA21AA22E
:100E6000E1E0F0E0FA83E98380912201909123018F
:100E7000181619060CF46CC0C3C049E753E0BE0154
:100E80006E5D7F4FCE0101960E941503892B31F7CD
:100E900049E753E0BE016E5D7F4FCE0101960E948F
:100EA00015030197D9F649E753E0BE016E5D7F4F08
:100EB000CE0101960E941503892B81F6812C912C7D
:100EC000540100E010E08091C70190E029813A814F
:100ED0002817390774F549E753E0BE016E5D7F4F6F
:100EE000CE0101960E9415037C0149E753E0BE0143
:100EF0006E5D7F4FCE0101960E941503F1E0EF1663
:100F0000F10451F4892B09F0A9CF880C991CAA1C73
:100F1000BB1C689480F80AC0EF2809F09FCF0197A6
:100F200009F09CCF880C991CAA1CBB1C0F5F1F4F9B
:100F3000CACF10931F0100931E0180921A01909254
:100F40001B01A0921C01B0921D0121E030E035C4CC
:100F5000E0912001F091210182E090E09A83898361
:100F60008281938189974E9708F04AC023E030E050
:100F70003A832983848195810B970A9708F040C0B2
:100F80004CEB51E0BE016E5D7F4FCE0101960E9499
:100F90001503892BA9F54CEB51E0BE016E5D7F4F27
:100FA000CE0101960E941503019751F5812C912CD9
:100FB000540100E010E02091220130912301898149
:100FC0009A81821793070CF026C14CEB51E0BE01C9
:100FD0006E5D7F4FCE0101960E9415037C010330A8
:100FE000110509F0E2C04CEB51E0BE016E5D7F4F90
:100FF000CE0101960E941503E816F90609F4D5C042
:10100000E0912001F091210182819381C69786971A
:10101000E0F4848195814B974597B8F4DF011696EB
:101020007F0136ECE30EF11C20E030E040E050E0C0
:1010300060E070E080E090E00D911C911197095004
:1010400011090830110508F4F5C08091C7018933F2
:1010500070F182819381895791098335910508F454
:1010600025C125C0D90112966D917C9113976651C7
:1010700071096131710508F045C1D701C601880FBA
:10108000991FAA1FBB1F6C017D016894C0F84E5FB9
:101090005F4F2C5F3F4F4B33510509F416C1D90107
:1010A0006D917C916A50710969307105D8F2809117
:1010B000C701823231F4828193810A97099708F43B
:1010C00031C1828193818957910983359105D0F48B
:1010D0008091C7018132B0F084819581CA97899748
:1010E00088F49F012A5F3F4FC12CD12C760143E049
:1010F00050E0D9016D917C916A5071096930710598
:1011000008F42CC1828193818C549109C59778F49D
:101110008091C701843031F484819581809747970D
:1011200008F47BC18091C701843408F05DC18091CF
:10113000C701863460F1828193810C970B9708F484
:10114000B7C125C0D90112966D917C9113976E514C
:1011500071096731710508F0E1C1D701C601880F37
:10116000991FAA1FBB1F6C017D016894C0F84E5FD8
:101170005F4F2C5F3F4F4534510509F4B4C1D9018D
:101180006D917C916C5071096B307105D8F2809132
:10119000C701883508F429C2828193818558910955
:1011A0008B35910508F4CAC120C24CEB51E0BE0159
:1011B0006E5D7F4FCE0101960E9415036C010330D6
:1011C000110569F44CEB51E0BE016E5D7F4FCE011D
:1011D00001960E941503C816D90609F011CFE11433
:1011E000F10459F4CA94CD2809F00ACF880C991C4F
:1011F000AA1CBB1C689480F80BC0EA94EF2809F085
:10120000FFCECD2809F0FCCE880C991CAA1CBB1C73
:101210000F5F1F4FD0CE10931F0100931E018092CD
:101220001A0190921B01A0921C01B0921D0182E054
:1012300090E0C1CC12960D911C91139701511109A8
:101240000D30110528F501E00E94680E216014960A
:10125000AE15BF0509F0F0CE20931A0130931B01A3
:1012600040931C0150931D0100E20E94830E2093C5
:10127000180130931901A5E0B0E0B0931701A093D5
:101280001601E0E3F0E0F0931F01E0931E0197CC1C
:1012900012960D911C9113970450110905301105F8
:1012A00008F0D3CE01E00E94680ED1CF84819581F1
:1012B000CA97899708F0FBCE9F012A5F3F4FC12C48
:1012C000D12C760143E050E0EACE9F012A583F4FEF
:1012D000D9012D913C912A5031092930310508F06E
:1012E000E6CE2CE130E030931F0120931E01C09226
:1012F0001A01D0921B01E0921C01F0921D018AE0BC
:1013000090E059CCD90112966D917C91139766505B
:1013100071096730710508F0CACECC0CDD1CEE1CDB
:10132000FF1CB5CE2091C701CF01820F911D820F06
:10133000911DDC0112978D919C910A97099708F0F5
:10134000C0CE10921F0110921E0140921A015092BD
:101350001B0160921C0170921D012DC2D9011296D1
:101360006D917C911397665171096131710588F116
:1013700012966D917C9113976650710967307105D3
:1013800008F0C0CECC0CDD1CEE1CFF1C4E5F5F4F86
:101390002C5F3F4F4332510509F0ABCE9F012A5BD2
:1013A0003F4FD9012D913C912A5031092930310507
:1013B00008F0A8CEE0E1F0E0F0931F01E0931E01F9
:1013C000C0921A01D0921B01E0921C01F0921D0103
:1013D000F2C1D701C601880F991FAA1FBB1F6C015C
:1013E0007D016894C0F8D2CF848195818954910998
:1013F000C39708F09CCE9F012A5F3F4FBF016A57F9
:101400007F4FC12CD12C7601D9014D915C9149506F
:10141000510949305105A0F08ACE868197810997FC
:10142000099708F07FCE10921F0110921E01409282
:101430001A0150921B0160921C0170921D0125C07F
:10144000D90112964D915C91139746515109413142
:101450005105F0F4D701C601880F991FAA1FBB1FC1
:101460006C017D016894C0F82C5F3F4F2617370749
:1014700059F630921F0120921E01C0921A01D0929B
:101480001B01E0921C01F0921D01E7E0F0E08EC12B
:10149000D90112964D915C911397465051094730EE
:1014A000510508F044CECC0CDD1CEE1CFF1CDCCF3B
:1014B000848195810997099708F069CE8681978183
:1014C0008C974F9708F063CE8085918589974D97CB
:1014D00008F05DCE9F01265F3F4FC12CD12C7601D5
:1014E00045E050E04CCE9F0126573F4FD9012D914A
:1014F0003C912C5031092B30310508F048CE309208
:101500001F0120921E01C0921A01D0921B01E0928D
:101510001C01F0921D0188E090E04DCBD90112969C
:101520006D917C911397695071096930710508F0CC
:101530002ECECC0CDD1CEE1CFF1C19CE84819581B7
:10154000825491098E9708F050C08F01045C1F4FA0
:101550008DE190E020E030E04091C70150E0445040
:10156000510984179507FCF4A80142505109DA018A
:101570004D915C914950510948305105B0F5BC017D
:101580006F5F7F4FD8014D915C9111974750510982
:101590004730510500F14D915C914851510942315C
:1015A000510500F1CB0101979595879590931F0107
:1015B00080931E018A97CCF0C901330FAA0BBB0B95
:1015C00080931A0190931B01A0931C01B0931D01FD
:1015D00089E090E0F0CA220F331F216002960C5F71
:1015E0001F4FBACF220F331FF9CF8091C70180322E
:1015F000E1F48281938106970697B8F484819581FE
:101600000997099790F49F012A5F3F4FBF01625CE1
:101610007F4FC12CD12C7601D9014D915C91465060
:1016200051094630510508F486C0209122013091BD
:1016300023013FA32EA3263031050CF4FECA8F01EF
:101640000E5F1F4F35ECC32E3DE9D32E3CE1E32E58
:1016500031E8F32E83E090E09DA38CA3D80114968B
:101660006D917C911597AD90BC9080E090E00E94C8
:101670002E0D68A779A78AA79BA7B50180E090E007
:101680000E942E0D4B015C012DEC3CEC4CE45FE321
:101690000E94E00D9B01AC0168A579A58AA59BA5D8
:1016A0000E94810C87FD19C02DEC3CEC4CE45FE3FB
:1016B00068A579A58AA59BA50E94E00D9B01AC01B8
:1016C000C501B4010E94810CE82F880FFF0BEE27A3
:1016D000FF0FEE1FFF27319602C0E0E0F0E0A70108
:1016E000960163E971E080E091E00E944D0E6F0188
:1016F000FF0FEE08FF08C626D726E826F926ECA13C
:10170000FDA13196FDA3ECA30E5F1F4F2EA13FA1BB
:101710002E173F0709F0A2CFC0921A01D0921B01E9
:10172000E0921C01F0921D0130921F0120921E01D7
:101730008FEF9FEF40CAD90112964D915C9113979C
:10174000495151094331510508F5D701C601880FA8
:10175000991FAA1FBB1F6C017D016894C0F82C5F04
:101760003F4F2617370709F057CF2EE030E0309370
:101770001F0120931E01C0921A01D0921B01E0921A
:101780001C01F0921D018FE090E015CAD90112965C
:101790004D915C911397495051094930510508F01A
:1017A00044CFCC0CDD1CEE1CFF1CD9CFF0931701ED
:1017B000E093160104CA26E030E03093170120932D
:1017C0001601FDC9E6E2F1E01382128288EE93E091
:1017D000A0E0B0E084839583A683B78384E091E0A2
:1017E0009183808385EC90E09587848784EC90E0FA
:1017F0009787868780EC90E0918B808B81EC90E0DE
:10180000938B828B82EC90E0958B848B86EC90E0BE
:10181000978B868B118E128E138E148EE3ECF1E073
:1018200087E08183138208955058BB27AA270E941E
:101830002C0C0C94A60D0E94980D38F00E949F0D60
:1018400020F039F49F3F19F426F40C94950D0EF412
:10185000E095E7FB0C948F0DE92F0E94B70D58F32C
:10186000BA17620773078407950720F079F4A6F585
:101870000C94D90D0EF4E0950B2EBA2FA02D0B0170
:10188000B90190010C01CA01A0011124FF27591BC5
:1018900099F0593F50F4503E68F11A16F040A22FCB
:1018A000232F342F4427585FF3CF4695379527953C
:1018B000A795F0405395C9F77EF41F16BA0B620B3B
:1018C000730B840BBAF09150A1F0FF0FBB1F661F82
:1018D000771F881FC2F70EC0BA0F621F731F841FC5
:1018E00048F4879577956795B795F7959E3F08F0EB
:1018F000B0CF9395880F08F09927EE0F97958795AD
:1019000008950E946B0D08F481E008950E949A0CDE
:101910000C94A60D0E949F0D58F00E94980D40F067
:1019200029F45F3F29F00C948F0D51110C94DA0DBE
:101930000C94950D0E94B70D68F39923B1F35523CC
:1019400091F3951B550BBB27AA27621773078407D2
:1019500038F09F5F5F4F220F331F441FAA1FA9F368
:1019600035D00E2E3AF0E0E832D091505040E69556
:10197000001CCAF72BD0FE2F29D0660F771F881FB7
:10198000BB1F261737074807AB07B0E809F0BB0BAA
:10199000802DBF01FF2793585F4F3AF09E3F5105BE
:1019A00078F00C948F0D0C94DA0D5F3FE4F3983EC1
:1019B000D4F3869577956795B795F7959F5FC9F7A7
:1019C000880F911D9695879597F90895E1E0660F28
:1019D000771F881FBB1F621773078407BA0720F0A1
:1019E000621B730B840BBA0BEE1F88F7E09508950A
:1019F0000E94FF0C6894B1110C94DA0D08950E94B6
:101A0000BF0D88F09F5798F0B92F9927B751B0F0C4
:101A1000E1F0660F771F881F991F1AF0BA95C9F772
:101A200014C0B13091F00E94D90DB1E008950C942A
:101A3000D90D672F782F8827B85F39F0B93FCCF3DD
:101A4000869577956795B395D9F73EF490958095EF
:101A5000709561957F4F8F4F9F4F0895E89409C00F
:101A600097FB3EF490958095709561957F4F8F4FD1
:101A70009F4F9923A9F0F92F96E9BB279395F695E7
:101A8000879577956795B795F111F8CFFAF4BB0F65
:101A900011F460FF1BC06F5F7F4F8F4F9F4F16C0C9
:101AA000882311F096E911C0772321F09EE8872F53
:101AB000762F05C0662371F096E8862F70E060E00F
:101AC0002AF09A95660F771F881FDAF7880F969588
:101AD000879597F90895990F0008550FAA0BE0E82C
:101AE000FEEF16161706E807F907C0F012161306E0
:101AF000E407F50798F0621B730B840B950B39F420
:101B00000A2661F0232B242B252B21F408950A2685
:101B100009F4A140A6958FEF811D811D089597F9C5
:101B20009F6780E870E060E008959FEF80EC089583
:101B300000240A94161617061806090608950024AC
:101B40000A9412161306140605060895092E039426
:101B5000000C11F4882352F0BB0F40F4BF2B11F49A
:101B600060FF04C06F5F7F4F8F4F9F4F089557FDF9
:101B70009058440F551F59F05F3F71F04795880FFB
:101B800097FB991F61F09F3F79F087950895121692
:101B900013061406551FF2CF4695F1DF08C016163E
:101BA00017061806991FF1CF8695710561050894EF
:101BB0000895E894BB2766277727CB0197F9089506
:101BC0000E94F30D0C94A60D0E94980D38F00E940F
:101BD0009F0D20F0952311F00C948F0D0C94950D12
:101BE00011240C94DA0D0E94B70D70F3959FC1F388
:101BF000950F50E0551F629FF001729FBB27F00DBB
:101C0000B11D639FAA27F00DB11DAA1F649F66270F
:101C1000B00DA11D661F829F2227B00DA11D621F5E
:101C2000739FB00DA11D621F839FA00D611D221F18
:101C3000749F3327A00D611D231F849F600D211DFC
:101C4000822F762F6A2F11249F5750409AF0F1F07F
:101C500088234AF0EE0FFF1FBB1F661F771F881FE8
:101C600091505040A9F79E3F510580F00C948F0D84
:101C70000C94DA0D5F3FE4F3983ED4F386957795A4
:101C80006795B795F795E7959F5FC1F7FE2B880F8E
:101C9000911D9695879597F90895DB018F939F93F2
:101CA0000E945D0EBF91AF91A29F800D911DA39FD9
:101CB000900DB29F900D112408950E94A50EA59F2E
:101CC000900DB49F900DA49F800D911D1124089537
:101CD0000F93083090F0982F872F762F652F542F71
:101CE000432F322F22270850F4CF220F331F441FD7
:101CF000551F661F771F881F991F0A95B2F70F910E
:101D0000089597FB10F8169400080F93083098F088
:101D10000850232F342F452F562F672F782F892FC8
:101D2000902DF4CF0594979587957795679557955E
:101D30004795379527950A95AAF70F910895EE0FC5
:101D4000FF1F0590F491E02D0994A29FB001B39F6D
:101D5000C001A39F700D811D1124911DB29F700DB4
:101D6000811D1124911D089581E090E0F8940C9458
:061D7000B90EF894FFCF4C
:101D76000000000023018C00BA007001EB00C900CE
:061D8600DD000D0A000063
:107E0000112484B714BE81FFF0D085E080938100F7
:107E100082E08093C00088E18093C10086E0809377
:107E2000C20080E18093C4008EE0C9D0259A86E02C
:107E300020E33CEF91E0309385002093840096BBD3
:107E4000B09BFECF1D9AA8958150A9F7CC24DD24C4
:107E500088248394B5E0AB2EA1E19A2EF3E0BF2EE7
:107E6000A2D0813461F49FD0082FAFD0023811F036
:107E7000013811F484E001C083E08DD089C08234E0
:107E800011F484E103C0853419F485E0A6D080C0E4
:107E9000853579F488D0E82EFF2485D0082F10E0AE
:107EA000102F00270E291F29000F111F8ED06801E7
:107EB0006FC0863521F484E090D080E0DECF843638
:107EC00009F040C070D06FD0082F6DD080E0C81688
:107ED00080E7D80618F4F601B7BEE895C0E0D1E017
:107EE00062D089930C17E1F7F0E0CF16F0E7DF06D8
:107EF00018F0F601B7BEE89568D007B600FCFDCFD4
:107F0000A601A0E0B1E02C9130E011968C91119780
:107F100090E0982F8827822B932B1296FA010C0160
:107F200087BEE89511244E5F5F4FF1E0A038BF0790
:107F300051F7F601A7BEE89507B600FCFDCF97BE46
:107F4000E89526C08437B1F42ED02DD0F82E2BD052
:107F50003CD0F601EF2C8F010F5F1F4F84911BD097
:107F6000EA94F801C1F70894C11CD11CFA94CF0C13
:107F7000D11C0EC0853739F428D08EE10CD085E9AC
:107F80000AD08FE07ACF813511F488E018D01DD067
:107F900080E101D065CF982F8091C00085FFFCCF94
:107FA0009093C60008958091C00087FFFCCF809118
:107FB000C00084FD01C0A8958091C6000895E0E648
:107FC000F0E098E1908380830895EDDF803219F02E
:107FD00088E0F5DFFFCF84E1DECF1F93182FE3DFCA
:107FE0001150E9F7F2DF1F91089580E0E8DFEE27F6
:047FF000FF270994CA
:027FFE00040479
:0400000300007E007B
:00000001FF
