:100000000C945C000C9479000C9479000C947900A9
:100010000C9479000C9479000C9479000C9479007C
:100020000C9479000C9479000C9479000C9479006C
:100030000C9479000C9479000C9479000C9479005C
:100040000C9426010C9479000C9479000C9479009E
:100050000C9479000C9479000C9479000C9479003C
:100060000C9479000C947900000000080002010053
:100070000003040700000000000000000000000072
:10008000250028002B0000000000240027002A0083
:10009000040404040404040402020202020203032E
:1000A0000303030301020408102040800102040836
:1000B000102001020408102011241FBECFEFD8E049
:1000C000DEBFCDBF11E0A0E0B1E0E2E2F4E002C0AB
:1000D00005900D92AC30B107D9F721E0ACE0B1E06A
:1000E00001C01D92A531B207E1F70E9470010C9486
:1000F0000F020C94000090E0FC01E859FF4F34918E
:10010000FC01EC55FF4F2491FC01E057FF4FE491B7
:10011000EE2309F43BC0332339F1333091F038F446
:100120003130A9F0323001F584B58F7D12C03730FF
:1001300091F03830A1F03430B9F4809180008F7D97
:1001400003C0809180008F77809380000DC084B5BC
:100150008F7784BD09C08091B0008F7703C08091F4
:10016000B0008F7D8093B000F0E0EE0FFF1FE458E9
:10017000FF4FA591B4918FB7F894EC91611103C032
:1001800020952E2301C02E2B2C938FBF08953FB7AF
:10019000F8948091110190911201A0911301B091F6
:1001A000140126B5A89B05C02F3F19F00196A11D8B
:1001B000B11D3FBFBA2FA92F982F8827820F911DFD
:1001C000A11DB11DBC01CD0142E0660F771F881F44
:1001D000991F4A95D1F708958F929F92AF92BF923F
:1001E000CF92DF92EF92FF926B017C010E94C700D9
:1001F0004B015C01C114D104E104F104F1F00E944F
:10020000C700DC01CB0188199909AA09BB09883EFE
:100210009340A105B10570F321E0C21AD108E108AD
:10022000F10888EE880E83E0981EA11CB11CC11451
:10023000D104E104F10419F7DDCFFF90EF90DF90D6
:10024000CF90BF90AF909F908F9008951F920F9284
:100250000FB60F9211242F933F938F939F93AF93D9
:10026000BF9380910D0190910E01A0910F01B0916B
:10027000100130910C0123E0230F2D3720F401965B
:10028000A11DB11D05C026E8230F0296A11DB11DB9
:1002900020930C0180930D0190930E01A0930F0108
:1002A000B09310018091110190911201A09113015E
:1002B000B09114010196A11DB11D8093110190937D
:1002C0001201A0931301B0931401BF91AF919F91BC
:1002D0008F913F912F910F900FBE0F901F90189507
:1002E000789484B5826084BD84B5816084BD85B511
:1002F000826085BD85B5816085BD80916E0081601D
:1003000080936E00109281008091810082608093C2
:1003100081008091810081608093810080918000C4
:100320008160809380008091B10084608093B100EF
:100330008091B00081608093B00080917A008460E9
:1003400080937A0080917A00826080937A00809115
:100350007A00816080937A0080917A00806880932F
:100360007A001092C100A0E0B1E08D919D91992793
:10037000FC01EC55FF4F2491FC01E057FF4F8491A5
:10038000882399F090E0880F991FFC01EA57FF4FEE
:10039000C591D491FC01E458FF4F859194918FB79A
:1003A000F894E881E22BE8838FBF81E0AC30B80796
:1003B000E1F680E0E82E80E0F82EC0E0D1E0188180
:1003C000229661E0812F0E947B0064E670E080E06D
:1003D00090E00E94EC0060E0812F0E947B0081E0B1
:1003E000CC30D80761F7CCE0D1E02297188161E0EA
:1003F000812F0E947B0064E670E080E090E00E9424
:10040000EC0060E0812F0E947B0081E0C030D807C3
:1004100061F7E114F10489F20E940000CECFF89454
:02042000FFCF0C
:0C042200020007000400060005000300B3
:00000001FF
