:100000000C945D000C9485000C9485000C94850084
:100010000C9485000C9485000C9485000C9485004C
:100020000C9485000C9485000C9485000C9485003C
:100030000C9485000C9485000C9485000C9485002C
:100040000C94D2020C9485000C94A0020C947A02B9
:100050000C9485000C9485000C9485000C9485000C
:100060000C9485000C9485000000000024002700FB
:100070002A0000000000250028002B0004040404CE
:100080000404040402020202020203030303030342
:10009000010204081020408001020408102001021F
:1000A00004081020000000080002010000030407FB
:1000B0000000000000000000850411241FBECFEFE7
:1000C000D8E0DEBFCDBF11E0A0E0B1E0ECE2FAE0A5
:1000D00002C005900D92AC32B107D9F721E0ACE235
:1000E000B1E001C01D92A63DB207E1F710E0CDE5F9
:1000F000D0E004C02197FE010E940905CC35D1074C
:10010000C9F70E941C030C9414050C940000EDEA3E
:10011000F0E02491E9E9F0E09491E5E8F0E0E49181
:10012000EE2309F43BC0222339F1233091F038F457
:100130002130A9F0223001F524B52F7D12C02730DF
:1001400091F02830A1F02430B9F4209180002F7D67
:1001500003C0209180002F77209380000DC024B52C
:100160002F7724BD09C02091B0002F7703C02091C4
:10017000B0002F7D2093B000F0E0EE0FFF1FEE588F
:10018000FF4FA591B4912FB7F894EC91811103C062
:1001900090959E2301C09E2B9C932FBF0895CF92D4
:1001A000DF92EF92FF920F931F93CF93DF936C0137
:1001B0007A018B01C0E0D0E0CE15DF0589F0D801CF
:1001C0006D918D01D601ED91FC910190F081E02DB2
:1001D000C6010995892B11F47E0102C02196ECCF4E
:1001E000C701DF91CF911F910F91FF90EF90DF90AA
:1001F000CF900895089580E090E00895FC01538D1C
:10020000448D252F30E0842F90E0821B930B5417F0
:1002100010F0CF96089501970895FC01918D828D7D
:10022000981761F0828DDF01A80FB11D5D968C914A
:10023000928D9F5F9F73928F90E008958FEF9FEF55
:100240000895FC01918D828D981731F0828DE80F11
:10025000F11D858D90E008958FEF9FEF0895FC01CB
:10026000918D228D892F90E0805C9F4F821B910998
:100270008F739927089589E391E00E942F0121E06F
:10028000892B09F420E0822F0895FC01848DDF0181
:10029000A80FB11DA35ABF4F2C91848D90E00196F9
:1002A0008F739927848FA689B7892C93A089B189E8
:1002B0008C9180648C93938D848D981306C00288F2
:1002C000F389E02D80818F7D80830895EF92FF92E6
:1002D0000F931F93CF93DF93EC0181E0888F9B8D69
:1002E0008C8D981305C0E889F989808185FD24C02B
:1002F000F62E0B8D10E00F5F1F4F0F731127E02EAE
:100300008C8DE8120CC00FB607FCFACFE889F9898A
:10031000808185FFF5CFCE010E944501F1CF8B8D05
:10032000FE01E80FF11DE35AFF4FF0820B8FEA89BF
:10033000FB898081806207C0EE89FF896083E8893C
:10034000F98980818064808381E090E0DF91CF91A2
:100350001F910F91FF90EF900895CF93DF93EC01E1
:10036000888D8823C9F0EA89FB89808185FD05C0D5
:10037000A889B9898C9186FD0FC00FB607FCF5CF0F
:10038000808185FFF2CFA889B9898C9185FFEDCF57
:10039000CE010E944501E7CFDF91CF91089580E023
:1003A00090E0892B29F00E943B0181110C94000000
:1003B00008953FB7F8948091310190913201A09156
:1003C0003301B091340126B5A89B05C02F3F19F029
:1003D0000196A11DB11D3FBFBA2FA92F982F8827C5
:1003E000820F911DA11DB11DBC01CD0142E0660F20
:1003F000771F881F991F4A95D1F70895009769F0D4
:10040000FC0101900020E9F73197AF01481B590B1F
:10041000BC0189E391E00C94CF0080E090E0089566
:100420008F929F92AF92BF920F931F93CF93DF93C0
:10043000CDB7DEB7A1970FB6F894DEBF0FBECDBF24
:1004400019A2423008F44AE08E010F5D1F4F842E3E
:10045000912CA12CB12CA50194010E94D104E62F6E
:10046000B901CA0101501109EA3014F4E05D01C07C
:10047000E95CD801EC93232B242B252B61F7C801D1
:100480000E94FE01A1960FB6F894DEBF0FBECDBF4D
:10049000DF91CF911F910F91BF90AF909F908F9060
:1004A0000895CF92DF92EF92FF92CF93DF936B018B
:1004B0007C01E0913901F0913A010190F081E02D49
:1004C0006DE289E391E00995EC0166277727CB017E
:1004D0006C197D098E099F094AE00E9410028C0F59
:1004E0009D1FDF91CF91FF90EF90DF90CF90089507
:1004F0000E940F051F920F920FB60F9211242F9397
:100500003F934F935F936F937F938F939F93AF939B
:10051000BF93EF93FF9389E391E00E944501FF9120
:10052000EF91BF91AF919F918F917F916F915F916B
:100530004F913F912F910F900FBE0F901F901895E4
:100540001F920F920FB60F9211242F938F939F93A8
:10055000EF93FF93E0914901F0914A018081E0918E
:100560004F01F091500182FD12C0908180915201A3
:100570008F5F8F7320915301821751F0E0915201E8
:10058000F0E0E75CFE4F958F8093520101C08081BF
:10059000FF91EF919F918F912F910F900FBE0F9030
:1005A0001F9018951F920F920FB60F9211242F9340
:1005B0003F938F939F93AF93BF9380912D01909121
:1005C0002E01A0912F01B091300130912C0123E038
:1005D000230F2D3720F40196A11DB11D05C026E87B
:1005E000230F0296A11DB11D20932C0180932D0194
:1005F00090932E01A0932F01B0933001809131018F
:1006000090913201A0913301B09134010196A11D66
:10061000B11D8093310190933201A0933301B093C7
:100620003401BF91AF919F918F913F912F910F9086
:100630000FBE0F901F901895789484B5826084BD8A
:1006400084B5816084BD85B5826085BD85B58160D6
:1006500085BD80916E00816080936E001092810054
:10066000809181008260809381008091810081600F
:1006700080938100809180008160809380008091D0
:10068000B10084608093B1008091B000816080935C
:10069000B00080917A00846080937A0080917A0023
:1006A000826080937A0080917A00816080937A00E2
:1006B00080917A00806880937A001092C100E09166
:1006C0004901F0914A0182E08083E0914501F09177
:1006D00046011082E0914701F09148018FEC808340
:1006E00010925101E0914D01F0914E0186E080831E
:1006F000E0914B01F0914C01808180618083E09119
:100700004B01F0914C01808188608083E0914B0126
:10071000F0914C01808180688083E0914B01F091E1
:100720004C0180818F7D8083C0E488248A9473E0AB
:10073000972EA12CB12C09E910E0E5E82E2EE0E07F
:100740003E2EC0937C0080917A00806480937A0072
:1007500080917A0086FDFCCFA0917800809179008D
:10076000B0E0B82BB0933801A09337012FEF30E001
:100770000E940205A50194010E94B2046901309310
:10078000360120933501F801F490F101849188231A
:1007900099F090E0880F991FFC01E859FF4FA5914F
:1007A000B491FC01EE58FF4F659174918FB7F894A6
:1007B0009C919F299C938FBF2115310541055105BF
:1007C00011F480E006C02F3F31054105510521F4A9
:1007D00081E00E94870044C0EDEAF0E0849183301C
:1007E000F9F048F48130B9F08230A1F584B5806227
:1007F00084BD28BD35C08730E9F0883019F18430D8
:1008000049F58091800080628093800030938B0056
:1008100020938A0025C084B5806884BD27BD20C090
:1008200080918000806880938000309389002093BD
:10083000880016C08091B00080688093B00020933B
:10084000B3000EC08091B00080628093B00020930E
:10085000B40006C0F0E8CF16D1040CF0B9CFB1CF88
:1008600082E191E00E94FE016091370170913801B0
:10087000072E000C880B990B97FF03C00E945102B2
:1008800003C04AE00E9410028CE191E00E94FE0148
:100890006091350170913601072E000C880B990B81
:1008A00097FF03C00E94510203C04AE00E94100259
:1008B00088E291E00E94FE010E94D9012B013C01D7
:1008C00092E0C92ED12CE12CF12C0E94D901DC013F
:1008D000CB0184199509A609B709883E9340A10563
:1008E000B10598F328EE420E23E0521E611C711CE4
:1008F000CA94CD28CE28CF2829F0C12CD12C76013E
:10090000C394E3CF0E94CF011CCFE9E3F1E013824F
:10091000128288EE93E0A0E0B0E084839583A68302
:10092000B78384E091E09183808385EC90E09587A4
:10093000848784EC90E09787868780EC90E0918BA9
:10094000808B81EC90E0938B828B82EC90E0958B96
:10095000848B86EC90E0978B868B118E128E138E93
:10096000148E0895052E97FB1EF400940E94C9046E
:1009700057FD07D00E94D10407FC03D04EF40C941D
:10098000C90450954095309521953F4F4F4F5F4F8B
:10099000089590958095709561957F4F8F4F9F4FEB
:1009A0000895A1E21A2EAA1BBB1BFD010DC0AA1FB0
:1009B000BB1FEE1FFF1FA217B307E407F50720F0C8
:1009C000A21BB30BE40BF50B661F771F881F991F43
:1009D0001A9469F760957095809590959B01AC018C
:1009E000BD01CF010895A29FB001B39FC001A39F95
:1009F000700D811D1124911DB29F700D811D112458
:100A0000911D08950E94F304B7FF0895821B930B74
:100A10000895EE0FFF1F0590F491E02D099481E0F9
:0C0A200090E0F8940C941405F894FFCFBB
:100A2C00000000006601CF00FE00AD012F010D019A
:100A3C00210173656E736F72203D200009206F7564
:0C0A4C0074707574203D20000D0A00003D
:00000001FF
